:100000000C9462000C948A000C948A000C948A0070
:100010000C948A000C948A000C948A000C948A0038
:100020000C948A000C948A000C948A000C948A0028
:100030000C948A000C948A000C948A000C948A0018
:100040000C9408010C948A000C948A000C948A0089
:100050000C948A000C948A000C948A000C948A00F8
:100060000C948A000C948A000000000024002700F1
:100070002A0000000000250028002B0000000000DE
:1000800023002600290004040404040404040202DA
:100090000202020203030303030301020408102007
:1000A0004080010204081020010204081020000012
:1000B0000007000201000003040600000000000029
:1000C0000000D70011241FBECFEFD8E0DEBFCDBFA8
:1000D00011E0A0E0B1E0ECE8F4E002C005900D9280
:1000E000A030B107D9F711E0A0E0B1E001C01D9246
:1000F000AC3DB107E1F710E0C4ECD0E004C02297BA
:10010000FE010E944002C23CD107C9F70E94DE00F6
:100110000C9414020C9400001092CC011092CB01AC
:100120001092CE011092CD01E3E0F1E01192119214
:1001300081E0EB3CF807D1F708954091CB01509155
:10014000CC01FA01EE0FFF1FED5FFE4F20813181E0
:10015000BC01621B730B2091CD013091CE01260FA3
:10016000371F3093CE012093CD0191838083CA0144
:10017000019664E670E00E9417029093CC01809390
:10018000CB01089580E091E068E00E9405010E94A3
:100190008C001092D0011092CF011092D2011092D7
:1001A000D101089580E090E00E949D00089580E0D4
:1001B00091E064E043E00E94ED000895CF93DF9367
:1001C0000E9450010E94C200C0E0D0E00E94D20014
:1001D0002097E1F30E940000F9CFCF93DF93EC0169
:1001E000862F6883498360E00E94B801898160E0BE
:1001F0000E94B801888160E00E94DC01898160E092
:100200000E94DC01DF91CF910895FC016283089583
:100210001F920F920FB60F9211242F933F938F933B
:100220009F93AF93BF938091D7019091D801A091F4
:10023000D901B091DA013091DB010196A11DB11D08
:10024000232F2D5F2D3720F02D570196A11DB11DB5
:100250002093DB018093D7019093D801A093D9011B
:10026000B093DA018091D3019091D401A091D5018E
:10027000B091D6010196A11DB11D8093D301909339
:10028000D401A093D501B093D601BF91AF919F91B6
:100290008F913F912F910F900FBE0F901F90189547
:1002A000789484B5826084BD84B5816084BD85B551
:1002B000826085BD85B5816085BDEEE6F0E0808118
:1002C00081608083E1E8F0E0108280818260808339
:1002D000808181608083E0E8F0E0808181608083BC
:1002E000E1EBF0E0808184608083E0EBF0E08081EE
:1002F00081608083EAE7F0E0808184608083808190
:100300008260808380818160808380818068808337
:100310001092C1000895833071F0843028F4813048
:10032000A1F0823021F514C08630B1F08730D1F0D1
:100330008430E9F404C0809180008F7703C08091FD
:1003400080008F7D80938000089584B58F7702C0F0
:1003500084B58F7D84BD08958091B0008F778093A0
:10036000B00008958091B0008F7D8093B000089513
:1003700090E0FC01E656FF4F2491FC01EA57FF4F45
:10038000E491EE23C1F0F0E0EE0FFF1FE859FF4FBC
:1003900085919491DC01662341F49FB7F8948C9188
:1003A000209582238C939FBF08959FB7F8948C91DA
:1003B000822B8C939FBF08950F931F93DF93CF934E
:1003C0000F92CDB7DEB7282F30E0F901E255FF4F8D
:1003D0008491F901E656FF4F14912A573F4FF901D6
:1003E00004910023D9F0882321F069830E948B01B6
:1003F0006981E02FF0E0EE0FFF1FEE58FF4F85916F
:100400009491DC019FB7F894662321F48C911095A8
:10041000812302C08C91812B8C939FBF0F90CF9131
:10042000DF911F910F910895F8940C94440297FB6B
:10043000092E07260AD077FD04D00CD006D0002064
:100440001AF4709561957F4F0895F6F79095819510
:100450009F4F0895AA1BBB1B51E107C0AA1FBB1FDA
:10046000A617B70710F0A61BB70B881F991F5A9540
:10047000A9F780959095BC01CD010895EE0FFF1F5F
:0C0480000590F491E02D0994F894FFCF52
:00000001FF
